S01700004932435F504346383537345F4C43442E737265630D
S113000012C02CC02BC02AC029C028C027C026C0BB
S113001025C024C023C022C021C020C01FC01EC0D0
S11300201DC01CC01BC011241FBECFE5D4E0DEBF21
S1130030CDBF10E0A0E6B0E0ECEFF3E002C0059025
S11300400D92A039B107D9F710E0A0E9B0E001C0E2
S11300501D92A039B107E1F77DD1CEC1D1CF83B9CB
S113006084E886BF06B607FEFDCF0895882311F401
S113007084EC01C084E886BF06B607FEFDCF83B1D9
S1130080089584EA86BF06B607FEFDCF089584E985
S113009086BF08959FEF91BB82BB089581B1887F8D
S11300A0089511B887E480B984E086BF0895CF939A
S11300B0C82FE7DF8EE4D3DF8C2F8860D0DF84E99C
S11300C086BFCF910895DDDF8FE4C9DF81E0CEDF05
S11300D094E996BF0895CF93C82FC4608C2FE7DFAF
S11300E081E08A95F1F78C2F8B7FE1DFCF91089522
S11300F00F931F93CF93DF93C82F162F082F0295CA
S1130100007FE1DFD82FDD70C07FDC2B8D2FCFDFA8
S1130110112311F4DE7F03C0113019F4D1608D2F47
S1130120C6DF8D2FD8DFCFDFC82FCD70C02B8C2F2B
S1130130BEDF112311F4CE7F03C0113019F4C16066
S11301408C2FB5DF8C2FC7DF80E090E00197F1F7AB
S1130150DF91CF911F910F91089588E260E0C8DF8D
S113016086E060E0C5DF82E060E0C2DF81E060E05D
S1130170BFDF8AE060E0BCDF0895EFDF82DF8EE45A
S11301806EDF88E06CDF81B1887F883221F084E9FA
S113019086BF80E0089584E986BFDFDF81E00895AB
S11301A0ECDF8823E9F380E860E0A2DF81E461E02A
S11301B09FDF81E860E09CDF82E661E099DF82E80E
S11301C060E096DF83E661E093DFD7DF8823E9F31D
S11301D08EE060E08DDF0895CF93DF93EC0102C0E1
S11301E061E086DF89918823D9F7DF91CF91089563
S11301F0CF93DF9300D000D0CDB7DEB7853178F44C
S1130200198290E49A8394E19B8394E59C838158BA
S1130210FE01E60FF11D9081890F60E069DF0F9008
S11302200F900F900F90DF91CF910895EF92FF926E
S11302301F93CF93DF930F92CDB7DEB7162F87703E
S1130240880F880F880F806460E0798351DF80E035
S113025090E00197F1F7E12E7981F72E18E0F7018C
S113026081917F0161E044DF1150C9F70F90DF9164
S1130270CF911F91FF90EF900895CF93DF930F924A
S1130280CDB7DEB74983B4DF4981842F61E030DF25
S11302900F90DF91CF910895FF920F931F93CF9307
S11302A0DF9300D000D00F92CDB7DEB78A01F22ED3
S11302B09FDFFE01319685E0DF011D928A95E9F703
S11302C017FF07C08DE261E013DF109501951F4F02
S11302D003C080E261E00CDFFE0136962AE030E0E4
S11302E005C0C801B90161D082938B0101151105C4
S11302F0C1F7BFEFFB1659F4FE01319600E010E0A0
S113030002C00F5F1F4F81918823D9F315C08F2D31
S1130310992787FD909505E010E0081B190B0CC088
S1130320E1E0F0E0EC0FFD1FE00FF11F8081805D44
S113033061E0DEDE0F5F1F4F053011058CF30F9077
S11303400F900F900F900F90DF91CF911F910F910D
S1130350FF900895A6DE24DF80E060E870E066DFA9
S113036081E068E870E062DF81E061E041DF80E61F
S113037090E032DF81E062E03BDF89E690E02CDF51
S113038086E062E04BE750E024E086DF81E063E052
S11303902FDF8EE690E020DF82E163E040E06DDF56
S11303A083E163E041E069DFFFCF97FB092E072675
S11303B00AD077FD04D00CD006D000201AF4709532
S11303C061957F4F0895F6F7909581959F4F089515
S11303D0AA1BBB1B51E107C0AA1FBB1FA617B70767
S11303E010F0A61BB70B881F991F5A95A9F7809583
S10F03F09095BC01CD010895F894FFCF56
S11303FC41746D656761384100696E743A004375E8
S113040C73746F6D204368617261637465723A0032
S113041C0A1F1F0E040000000A15110A0400000034
S9030000FC
