:1000000012C02CC02BC02AC029C028C027C026C0BF
:1000100025C024C023C022C021C020C01FC01EC0D4
:100020001DC01CC01BC011241FBECFE5D4E0DEBF25
:10003000CDBF10E0A0E6B0E0E2E1F4E002C0059040
:100040000D92A038B107D9F710E0A0E8B0E001C0E8
:100050001D92A038B107E1F788D1D9C1D1CF83B9BA
:1000600084E886BF06B607FEFDCF0895882319F4FD
:1000700084EC86BF02C084E886BF06B607FEFDCFCB
:1000800083B1089584EA86BF06B607FEFDCF0895C2
:1000900084E986BF08959FEF91BB82BB089581B12B
:1000A000887F089511B887E480B984E086BF0895F9
:1000B000CF93C82FE7DF8EE4D2DF8C2F8860CFDFAD
:1000C000E7DFCF910895CF93DDDF8FE4C8DF81E0D4
:1000D000CDDFC82FDDDF8C2FCF910895CF93C82FB0
:1000E000C4608C2FE5DF81E08A95F1F78C2F8B7F40
:1000F000DFDFCF9108951F93CF93DF93182FD62F73
:10010000C82FC295C07FDFDF8D70107F182B812F25
:10011000CFDFDD2371F41E7F812FCADF812FDEDF69
:10012000D2DF8D70C82B8C2FC3DFCE7F8C2FC0DF2A
:1001300019C0D13059F41160812FBADF812FCEDF81
:10014000C2DF8D70C82B8C2FB3DF09C0812FC6DFB3
:10015000BADF8D70C82B8C2FABDFD13019F4C160A2
:100160008C2FA6DF8C2FBADF80E090E00197F1F7AB
:10017000DF91CF911F91089588E260E0BCDF86E0B7
:1001800060E0B9DF82E060E0B6DF81E060E0B3DF2D
:100190008AE060E0B0DF0895EFDF74DF8EE45FDFB8
:1001A00088E05DDF7CDF883219F072DF80E008953F
:1001B0006FDFE2DF81E00895EFDF8823E9F380E875
:1001C00060E099DF81E461E096DF81E860E093DF41
:1001D00082E661E090DF82E860E08DDF83E661E047
:1001E0008ADFDADF8823E9F38EE060E084DF0895B8
:1001F000CF93DF93EC018881882331F0219661E071
:100200007ADF89918823D9F7DF91CF910895CF9331
:10021000DF9300D0CDB7DEB7813158F4198290E476
:100220009A838158FE01E60FF11D9081890F60E0ED
:1002300062DF0F900F90DF91CF9108950F931F937E
:10024000CF93DF93162F072F8770880F880F880FA3
:10025000806460E050DF80E090E00197F1F7C12F0B
:10026000D02F18E0899161E046DF1150D9F7DF9176
:10027000CF911F910F910895CF93C42FC8DF8C2F7A
:1002800061E039DFCF910895EF92FF920F931F93B2
:10029000CF93DF9300D000D00F92CDB7DEB78A01A5
:1002A000E22EB5DFFE01319685E0DF011D928A95D1
:1002B000E9F711233CF48DE261E01DDF1095019513
:1002C0001F4F03C080E261E016DF0115110569F0E0
:1002D000FE0136962AE030E0C801B90171D0829360
:1002E000062F172F01151105B9F7BFEFEB16B1F463
:1002F0008981882349F0EE24FF2401E010E00C0FEF
:100300001D1F0E0D1F1D18C0FE01329680E090E0EB
:10031000019621912223E1F37C0109C08E2D9927BA
:1003200087FD909525E030E07901E81AF90AE5E0CB
:10033000EE16F10414F30DC0D8018D918D01805D8E
:1003400061E0D9DE0894E11CF11CB5E0EB16F10484
:100350009CF30F900F900F900F900F90DF91CF9123
:100360001F910F91FF90EF9008959CDE25DF80E0B4
:1003700060E770E063DF81E061E049DF80E690E004
:1003800037DF84E162E043DF86E690E031DF8AE038
:1003900063E040E071DF8AE064E045E050E024E0A3
:1003A00073DF81E068E770E049DF81E062E02FDF22
:1003B00088E690E01DDF8AE061E041E05DDFFFCF8D
:1003C00097FB092E07260AD077FD04D00CD006D063
:1003D00000201AF4709561957F4F0895F6F7909577
:1003E00081959F4F0895AA1BBB1B51E107C0AA1F0F
:1003F000BB1FA617B70710F0A61BB70B881F991FC6
:100400005A95A9F780959095BC01CD010895F8946F
:02041000FFCF1C
:10041200416D65656E00610056656C7576696C00AC
:100422000A1F1F0E040000000A15110A0400000032
:00000001FF
